:100000000C9434000C943E000C943E000C943E0082
:100010000C943E000C943E000C943E000C943E0068
:100020000C943E000C943E000C943E000C943E0058
:100030000C943E000C943E000C943E000C943E0048
:100040000C943E000C943E000C943E000C943E0038
:100050000C943E000C943E000C943E000C943E0028
:100060000C943E000C943E0011241FBECFEFD8E04C
:10007000DEBFCDBF0E9440000C947F000C940000B6
:10008000259A80E22FEF3DE399E4215030409040E3
:10009000E1F700C0000095B1982795B92FEF39E638
:1000A00098E1215030409040E1F700C0000095B148
:1000B000982795B92FEF31EE94E0215030409040D1
:1000C000E1F700C0000095B1982795B92FEF31EE08
:1000D00094E0215030409040E1F700C0000095B11D
:1000E000982795B92FEF30E792E0215030409040AB
:1000F000E1F700C0000095B1982795B9C3CFF894F7
:02010000FFCF2F
:00000001FF
