:100000000C9434000C9449000C9449000C94490061
:100010000C9449000C9449000C9449000C9449003C
:100020000C9449000C9449000C9449000C9449002C
:100030000C9449000C9449000C9449000C9449001C
:100040000C9449000C9449000C9449000C9449000C
:100050000C9449000C9449000C9449000C944900FC
:100060000C9449000C94490011241FBECFEFD8E036
:10007000DEBFCDBF11E0A0E0B1E0E4E1F1E002C0FD
:1000800005900D92A232B107D9F70E946F000C942F
:1000900088000C9400001092C50087E68093C4008D
:1000A000E0ECF0E080818D7F808388E08093C10068
:1000B00086E08093C20008959091C00095FFFCCF28
:1000C0008093C6000895CF93DF93EC018991882334
:1000D00019F00E945C00FACFDF91CF910895259A24
:1000E0000E944B0080E091E00E946300C0E285B175
:1000F0008C2785B983E191E00E9463002FEF83EDA7
:1001000090E3215080409040E1F700C00000EFCF25
:04011000F894FFCF91
:100114005541525420696E697469616C697A6564E9
:10012400210A004C454420746F67676C6564210A9A
:020134000000C9
:00000001FF
