:100000000C9434000C9449000C9449000C94490061
:100010000C9449000C9449000C9449000C9449003C
:100020000C9449000C9449000C9449000C9449002C
:100030000C9449000C9449000C9449000C9449001C
:100040000C9449000C9449000C9449000C9449000C
:100050000C9449000C9449000C9449000C944900FC
:100060000C9449000C94490011241FBECFEFD8E036
:10007000DEBFCDBF11E0A0E0B1E0EAE0F1E002C0F8
:1000800005900D92A431B107D9F70E946F000C942E
:1000900083000C9400001092C50087E68093C40092
:1000A000E0ECF0E080818D7F808388E08093C10068
:1000B00086E08093C20008959091C00095FFFCCF28
:1000C0008093C6000895CF93DF93EC018991882334
:1000D00019F00E945C00FACFDF91CF9108950E9441
:1000E0004B0080E091E00E94630090E285B1892797
:1000F00085B92FEF33ED80E3215030408040E1F7A8
:0A01000000C00000F3CFF894FFCF19
:10010A005541525420696E697469616C697A6564F3
:04011A00210A0000B6
:00000001FF
